:020000040800F2
:100000002018002001010008B5200008B7200008D2
:10001000BB200008BF200008C3200008000000002B
:10002000000000000000000000000000C7200008E1
:10003000C920000800000000CB200008CD200008E7
:100040001B0100081B0100081B0100081B01000820
:100050001B0100081B0100081B0100081B01000810
:100060001B0100081B0100081B0100081B01000800
:100070001B0100081B0100081B0100081B010008F0
:100080001B0100081B0100081B0100081B010008E0
:100090001B0100081B0100081B0100081B010008D0
:1000A0001B0100081B0100081B0100081B010008C0
:1000B0001B0100081B010008112300081B01000898
:1000C0001B0100081B0100081B0100081B010008A0
:1000D0001B010008A72800084F3100081B01000879
:1000E0001B0100081B0100081B010008DFF80CD0F1
:1000F00006F076FD004800475B1D00082018002030
:100100000648804706480047FEE7FEE7FEE7FEE7B1
:10011000FEE7FEE7FEE7FEE7FEE7FEE70302000874
:10012000ED0000080CB50020019000906C480068BC
:1001300040F480306A49086000BF6948006800F4F4
:10014000003000900198401C0190009818B9019867
:10015000B0F5A06FF1D16248006800F4003010B132
:100160000120009001E0002000900098012843D178
:100170005C48006840F010005A4908600846006872
:1001800020F0030008600846006840F002000860A4
:1001900053484068524948600846406848600846ED
:1001A000406840F4806048600846406820F47C1055
:1001B00048600846406840F4E81048600846006817
:1001C00040F08070086000BF4548006800F0007093
:1001D0000028F9D04248406820F0030040494860B8
:1001E0000846406840F00200486000BF3C48406854
:1001F00000F00C000828F9D10CBD10B5FFF792FFF4
:1002000010BD10B53648006840F001003449086060
:10021000084640683449084031494860084600684B
:10022000324908402E4908600846006820F48020C2
:1002300008600846406820F4FE0048604FF41F0044
:100240008860FFF7DAFF4FF000602949086010BDB1
:1002500010B5002100200022214B5B6803F00C0147
:1002600021B1042906D0082928D107E0214B224CCE
:10027000236027E01F4B204C236023E0184B5B6872
:1002800003F47010164B5B6803F48032022303EB17
:10029000904022B9194B4343174C23600DE0104B9B
:1002A0005B6803F4003323B1144B4343124C2360C7
:1002B00003E0104B4343104C236003E00D4B0E4C06
:1002C000236000BF00BF064B5B68C3F303130C4CF5
:1002D000E15C094B1B68CB40074C236010BD00005C
:1002E00000100240002002400000FFF8FFFFF6FE71
:1002F00008ED00E000127A000000002000093D0037
:100300000400002031490143314A1160704770B543
:10031000002100230F22C47804B32D4C246804F478
:10032000E064C4F5E064210AC1F10403CA404478E2
:1003300004FA03F18478144021430901254C06781E
:10034000A155047804F01F050124AC4005786D1117
:10035000AD0005F1E025C5F8004109E0047804F09E
:100360001F050124AC401C4D0678761145F8264047
:1003700070BD1A4A0A400243154B1B1F1A60704792
:1003800039B1134A121D12680243114B1B1D1A602A
:1003900006E00F4A121D126882430D4B1B1D1A60A6
:1003A0007047042808D14FF0E021096941F00401A9
:1003B0004FF0E022116107E04FF0E021096921F0E0
:1003C00004014FF0E0221161704700000000FA05BF
:1003D0000CED00E000E400E080E100E080FFFF1FA2
:1003E00010B50446CC48844208D10121042000F015
:1003F0002DFB0021042000F029FB46E0C748844281
:1004000008D10121082000F021FB0021082000F084
:100410001DFB3AE0C248844208D10121102000F0BF
:1004200015FB0021102000F011FB2EE0BD48844296
:1004300008D10121202000F009FB0021202000F03C
:1004400005FB22E0B848844208D10121402000F099
:10045000FDFA0021402000F0F9FA16E0B34884428A
:1004600008D10121802000F0F1FA0021802000F065
:10047000EDFA0AE0AE48844207D10121801500F070
:10048000E5FA0021A01500F0E1FA10BD10B5012138
:10049000084600F0DBFA0021012000F0D7FA10BD79
:1004A0002DE9F0410246002500260020002300240B
:1004B000002791F803C00CF00F0591F803C00CF071
:1004C000100CBCF1000F03D091F802C04CEA0505F6
:1004D00091F800C0BCF1000F31D0146800202BE06F
:1004E0004FF0010C0CFA00F3B1F800C00CEA03065F
:1004F0009E4220D183004FF00F0C0CFA03F7BC434F
:1005000005FA03FC4CEA040491F803C0BCF1280F7F
:1005100006D14FF0010C0CFA00FCC2F814C00AE03E
:1005200091F803C0BCF1480F05D14FF0010C0CFA53
:1005300000FCC2F810C0401C0828D1D31460B1F8E8
:1005400000C0BCF1FF0F34DD546800202EE000F144
:10055000080C4FF0010808FA0CF3B1F800C00CEADF
:1005600003069E4221D183004FF00F0C0CFA03F7D3
:10057000BC4305FA03FC4CEA040491F803C0BCF147
:10058000280F05D100F1080C08FA0CF8C2F8148005
:1005900091F803C0BCF1480F07D100F1080C4FF0EF
:1005A000010808FA0CF8C2F81080401C0828CED3C5
:1005B0005460BDE8F0814FF6FF7101800221817027
:1005C0000421C17070470246002093680B400BB1B4
:1005D000012000E0002070470146886880B2704723
:1005E00002460020D3680B400BB1012000E0002040
:1005F00070470146C86880B2704701617047416129
:1006000070470AB1016100E041617047C160704705
:100610004FF480320A43826181618261826982691A
:10062000704702460020434B18684FF6807318400D
:1006300040EA021008433F4B186070473E49C861CA
:100640007047F0B50A46002300240021002500F081
:100650000046B6F1004F02D1364EF16901E0354E49
:100660007168C0F3034583B200F44016B6F5401F2D
:1006700008D121F070612F4E766826F070662D4FFC
:100680007E6012E000F48016B6F5801F06D10326C6
:1006900006FA05F4A14341F0706106E0460D36010B
:1006A00003FA06F6B14341F0706122B1460D3601FE
:1006B00003FA06F6314300F00046B6F1004F02D1CE
:1006C0001C4EF16101E01B4E7160F0BD30B500229F
:1006D0008B071C0F0F2303FA04F2164B08338C1000
:1006E00053F824309343134C08348D1044F82530CC
:1006F00023468C1053F824308C07240F00FA04F49E
:1007000023430C4C08348D1044F8253030BD0A4981
:10071000DC3108607047000000080140000C014017
:10072000001001400014014000180140001C01406D
:10073000002001400000014000002042DF48006826
:1007400040F00100DD49086008464068DC49084087
:10075000DA49486008460068DA490840D749086025
:100760000846006820F4802008600846406820F4AD
:10077000FE0048604FF41F0088607047CF49096849
:1007800021F48031CD4A11601146096821F480219D
:100790001160B0F5803F03D0B0F5802F0ED106E098
:1007A000C649096841F48031C44A116007E0C34971
:1007B000096841F4A021C14A116000E000BF00BFF8
:1007C000704710B501460022002300204A11012A7B
:1007D00002D1BA4C236806E0022A02D1B74C236A40
:1007E00001E0B64C636A01F01F02012494401C40F2
:1007F0000CB1012000E0002010BD38B500200090B1
:100800000024002500BF3120FFF7DBFF05460098DC
:10081000401C00900098B0F5A06F01D0002DF2D0E0
:100820003120FFF7CEFF08B1012400E0002420466C
:1008300038BD01460020A14A106820F0F80040EAC7
:10084000C10010607047A049086070470246002050
:100850009A4B586820F47C1042EA01031843974BE6
:100860005860704798490866704701460020934ACF
:10087000506820F003000843506070478F4840687C
:1008800000F00C007047014600208C4A506820F0B0
:10089000F00008435060704701460020874A5068C6
:1008A00020F4E06008435060704701460020834A0E
:1008B000506820F4605040EAC1005060704729B190
:1008C0007E4A527A02437D4B5A7204E07B4A527A46
:1008D00082437A4B5A7270477B49D831086070471F
:1008E00001460020754A506820F44040084350609B
:1008F00070470021714A20321170704A82F820102E
:10090000012802D004280AD104E001216B4A2032D8
:10091000117005E00521694A2032117000E000BF26
:1009200000BF70476949086070476449096A01431C
:10093000624A11627047654944390860704730B5B2
:1009400000210022002400235C4D6D6805F00C019D
:1009500021B1042905D0082923D105E05C4D0560AB
:1009600022E05B4D05601FE0544D6D6805F4701288
:10097000524D6D6805F48034022505EB92421CB996
:10098000544D554305600BE04C4D6D6805F4003542
:100990001DB1504D5543056002E04D4D5543056076
:1009A00002E04B4D056000BF00BF444D6D6805F08F
:1009B000F0010909484D6B5C0568DD4045603F4D1D
:1009C0006D6805F4E061090A434D6B5C4568DD40E4
:1009D00085603A4D6D6805F46051C90A3E4D6B5C07
:1009E0004568DD40C560354D6D6805F44041890BB3
:1009F0003A4D6B5CC568B5FBF3F5056130BD29B1B7
:100A00002E4A526902432D4B5A6104E02B4A526927
:100A100082432A4B5A61704729B1284A926902439E
:100A2000264B9A6104E0254A92698243234B9A61DE
:100A3000704729B1214AD2690243204BDA6104E0B0
:100A40001E4AD26982431D4BDA61704729B11B4AA5
:100A5000D2680243194BDA6004E0184AD268824334
:100A6000164BDA60704729B1144A12690243134BDE
:100A70001A6104E0114A12698243104B1A617047EF
:100A800012494039086070470F49C86470470B49E4
:100A9000C87170470948406A40F080700749486251
:100AA000704701460020054A92680A400AB10120B9
:100AB00000E0002070470149887270470010024032
:100AC0000000FFF8FFFFF6FE0000424280044242B1
:100AD00000127A0000093D001400002024000020CC
:100AE00010B50446FE48844208D10121C014FFF726
:100AF000ADFF0021E014FFF7A9FFC4E0B4F1804F7F
:100B000008D101210846FFF7AEFF00210120FFF7C1
:100B1000AAFFB8E0F348844208D101210220FFF780
:100B2000A2FF00210220FFF79EFFACE0EE488442C6
:100B300008D101210420FFF796FF00210420FFF7D0
:100B400092FFA0E0E948844208D101210820FFF784
:100B50008AFF00210820FFF786FF94E0E4488442E2
:100B600008D101211020FFF77EFF00211020FFF7A0
:100B70007AFF88E0DF48844208D101212020FFF776
:100B800072FF00212020FFF76EFF7CE0DA488442EC
:100B900008D101214014FFF759FF00216014FFF72D
:100BA00055FF70E0D548844209D10121C804FFF700
:100BB0004DFF00214FF40020FFF748FF63E0D048CD
:100BC000844209D101210805FFF740FF00214FF4BD
:100BD0008010FFF73BFF56E0CA48844209D101214B
:100BE0004805FFF733FF00214FF40010FFF72EFFF9
:100BF00049E0C548844208D101214020FFF733FF76
:100C000000214020FFF72FFF3DE0C048844208D17B
:100C100001218020FFF727FF00218020FFF723FF1D
:100C200031E0BB48844208D101218015FFF71BFF4A
:100C30000021A015FFF717FF25E0B648844209D12F
:100C400001210804FFF702FF00214FF48030FFF775
:100C5000FDFE18E0B048844209D101214804FFF7A5
:100C6000F5FE00214FF40030FFF7F0FE0BE0AB483B
:100C7000844208D101218804FFF7E8FE00214FF4E7
:100C80008020FFF7E3FE10BD00220288944B9842BB
:100C90000ED0994B98420BD0B0F1804F08D0914BB9
:100CA000984205D0904B984202D0904B984204D184
:100CB0004FF68F731A404B881A438D4B984207D0DA
:100CC0008C4B984204D04FF6FF431A40CB881A430E
:100CD00002808B8883850B880385814B98420BD0DB
:100CE000854B984208D08B4B984205D08A4B98424E
:100CF00002D08A4B984201D10B7A0386012383826A
:100D0000704770B5002400220023058C4FF6FE7654
:100D100035400584028C8388048B4FF68F752C40F8
:100D2000B51E2C400D882C43751E2A400D892A4380
:100D30004D882A436A4DA8420BD06F4DA84208D077
:100D4000744DA84205D0744DA84202D0734DA842FC
:100D500013D14FF6F7752A404D892A434FF6FB759C
:100D60002A408D882A434FF6FF652B404FF6FF55EA
:100D70002B408D892B43CD892B4383800483CD88E1
:100D80008586028470BD70B5002400220023058C86
:100D90004FF6EF7635400584028C8388048B48F645
:100DA000FF752C404FF6FF452C400D884FF6FF761F
:100DB00006EA05252C434FF6DF752A400D8906EA21
:100DC00005152A434D8806EA05152A43444DA842D5
:100DD00002D0494DA8421DD14FF67F752A404D895A
:100DE0004FF6FF7606EA05152A434FF6BF752A40EF
:100DF0008D8806EA05152A434FF6FF352B404FF242
:100E0000FF752B408D8906EA85052B43CD8906EABF
:100E100085052B4383800483CD880587028470BDBC
:100E200070B5002400220023058C4FF6FF66354084
:100E30000584028C8388848B4FF68F752C404FF687
:100E4000FC752C400D882C434FF6FF552A400D8928
:100E50004FF6FF7606EA05252A434D8806EA052562
:100E60002A431F4DA84202D0234DA8421DD14FF264
:100E7000FF752A404D894FF6FF7606EA05252A437D
:100E80004FF6FF352A408D8806EA05252A434EF69F
:100E9000FF752B404DF6FF752B408D8906EA051531
:100EA0002B43CD8906EA05152B4383808483CD88A7
:100EB0008587028470BD70B5002200230024058C54
:100EC0004EF6FF7635400584038C8488828B48F685
:100ED000FF752A404FF6FF452A400D8820E00000AC
:100EE000002C01400004004000080040000C0040BD
:100EF000001000400014004000340140004C01404C
:100F0000005001400054014000180040001C004007
:100F100000200040004001400044014000480140E2
:100F20004FF6FF7606EA05252A434DF6FF752B405E
:100F30000D8906EA05352B434D8806EA05352B4316
:100F4000FA4DA84202D0FA4DA84208D14BF6FF75DF
:100F50002C408D894FF6FF7606EA85152C43848058
:100F60008283CD88A0F84050038470BD828B4FF2FD
:100F7000FF331A408283828B4FF6FF7303EA01230B
:100F80001A4382837047F0B50C46154600220021B3
:100F90000026078C4EF6FF7C07EA0C070784828B3D
:100FA000018C4FF6FF7707EA043640F6FF473A40D8
:100FB0004FF6FF7707EA05273A434FF6FF7707EA30
:100FC00003373A43D94FB8420ED0D94FB8420BD06D
:100FD000B0F1804F08D0D74FB84205D0D64FB842B5
:100FE00002D0D64FB84206D14DF6FF77394046F4CD
:100FF0008057394305E047F6FF57394044F480579E
:10100000394382830184F0BD828B4FF6F3731A401B
:101010008283828B0A4382837047F0B50C46154663
:10102000002200210026078C4FF6FF6C07EA0C0710
:101030000784828B018C4FF6FF7707EA04264FF670
:101040000C773A404FF6FF7707EA03172F433A43EE
:10105000B64FB8420ED0B64FB8420BD0B0F1804F69
:1010600008D0B44FB84205D0B34FB84202D0B34F06
:10107000B84206D14FF6FF57394046F480773943DE
:1010800005E04FF2FF57394044F4807739438283BB
:101090000184F0BD028B4FF2FF331A400283028BB2
:1010A0004FF6FF7303EA01231A4302837047F0B53A
:1010B0000C461546002200210026078C4FF6EF7CD7
:1010C00007EA0C070784028B018C4FF6FF7707EACB
:1010D000041640F6FF473A404FF6FF7707EA03371A
:1010E0003A434FF6FF7707EA05273A438F4FB84256
:1010F0000ED08F4FB8420BD0B0F1804F08D08D4F3B
:10110000B84205D08C4FB84202D08C4FB84206D1BD
:101110004FF6DF77394046F01007394305E04FF6C8
:101120005F77394044F01007394302830184F0BDF2
:10113000028B4FF6F3731A400283028B0A43028339
:101140007047F0B50C46154600220021068C4FF67C
:10115000FE773E400684028B018C4FF60C763240BF
:101160007E1C06EA03162E433243704EB0420ED068
:101170006F4EB0420BD0B0F1804F08D06D4EB042F0
:1011800005D06D4EB04202D06C4EB04206D14FF643
:10119000FD76314044F00106314305E04FF6F57627
:1011A000314044F00106314302830184F0BD70B543
:1011B00005460C465D4885420ED05D4885420BD001
:1011C000B5F1804F08D05B48854205D05A4885422A
:1011D00002D05A48854200D100E000BF208850B9B3
:1011E0002389A28861882846FFF7ABFFE18828465B
:1011F000FFF79EFF25E0208804280AD12389A288D2
:1012000061882846FFF753FFE1882846FFF742FF31
:1012100017E0208808280AD12389A28861882846F7
:10122000FFF7FBFEE1882846FFF7EEFE09E0238981
:10123000A28861882846FFF7A6FEE1882846FFF7C6
:1012400095FE70BD2DE9F04105460C4600260127AC
:10125000608808B9022600E00026A088012801D194
:10126000022700E001272088A0B92389A28861888D
:101270002846FFF766FFE1882846FFF759FF2389D4
:101280003A4631462846FFF712FFE1882846FFF725
:1012900001FF13E02389A28861882846FFF707FF32
:1012A000E1882846FFF7F6FE23893A46314628466C
:1012B000FFF747FFE1882846FFF73AFFBDE8F081D6
:1012C0000A884B881A438B881A43CB881A430B89A8
:1012D0001A434B891A438B891A43A0F8442070475C
:1012E0004FF6FF71818000210180C1804180017231
:1012F00070470021018041808180C180018141814E
:101300008181C1817047002101804180012181805C
:101310000021C180018170470021018041808180CE
:10132000C18001814181818170470000002C014012
:10133000003401400004004000080040000C004060
:1013400021B1028842F00102028004E002884FF6D7
:10135000FE731A400280704731B1B0F8442042F465
:101360000042A0F8442005E0B0F84420C2F30E0289
:10137000A0F8442070471AB183890B43838102E0AF
:1013800083898B43838170478182704741EA0203DE
:10139000A0F8483070471AB183890B43838102E07B
:1013A00083898B438381704701894FF6F87211401E
:1013B000018170470A46002101894FF68F73194059
:1013C00011430181704730B504460D462946204639
:1013D000FFF7F0FF208940F00700208130BD2DE9A4
:1013E000F04104460D4616461F46602D06D13B4689
:1013F000012231462046FFF75AFE05E03B46012216
:1014000031462046FFF79DFE29462046FFF7D2FFD2
:10141000208940F007002081BDE8F08130B50C46FE
:1014200000210189C9B24FF6FF7505EA032515436E
:1014300025432943018130BD2DE9F04105460E4683
:1014400017469846002443463A4631462846FFF759
:10145000E5FF2C894FF6F870044044F007044FF67E
:101460008F70044044F070042C81BDE8F081F0B529
:1014700004460D4616461F463B4632462946204640
:10148000FFF7CCFF208940F480402081F0BD01852A
:10149000828270470A46002101884FF68F731940F7
:1014A000114301807047F0B50C4615461E460021D9
:1014B000002200230189028B038C4FF6F877394014
:1014C00021434FF6FC473A4040F201173A434FF6AA
:1014D000DD773B404FF6FF7707EA06172F433B4384
:1014E000018102830384F0BD0A460021018B4FF67F
:1014F0008F7319401143018370470A460021018B05
:1015000048F6FF7319404FF6FF7303EA02231943AD
:10151000018370470A460021818B4FF68F73194073
:101520001143818370470A460021818B48F6FF737F
:1015300019404FF6FF7303EA022319438183704772
:1015400021B1028842F08002028004E002884FF656
:101550007F731A400280704721B1828842F00402F2
:10156000828004E082884FF6FB731A4082807047C5
:1015700021B1828842F00802828004E082884FF61E
:10158000F7731A408280704721B1828842F00102CD
:10159000828004E082884FF6FE731A408280704792
:1015A0000A460021018B4FF6F7731940114301835E
:1015B00070470A460021018B4FF2FF7319404FF626
:1015C000FF7303EA02231943018370470A4600218F
:1015D000818B4FF6F77319401143818370470A4698
:1015E0000021818B4FF2FF7319404FF6FF7303EA1E
:1015F00002231943818370470A460021018B4FF66D
:10160000FB7319401143018370470A460021018B87
:101610004FF6FF3319404FF6FF7303EA02231943D5
:10162000018370470A460021818B4FF6FB731940F6
:101630001143818370470A460021818B4FF6FF33A7
:1016400019404FF6FF7303EA022319438183704761
:101650000A460021018B4FF67F7319401143018325
:1016600070470A460021018BC1F30E014FF6FF734C
:1016700003EA02231943018370470A460021818B44
:101680004FF67F7319401143818370470A4600214A
:10169000818BC1F30E014FF6FF7303EA0223194356
:1016A000818370470A460021018C4FF6FD73194073
:1016B0001143018470470A460021018C4FF6F773ED
:1016C00019401143018470470A460021018C4FF6EE
:1016D000DF7319404FF6FF7303EA021319430184C5
:1016E00070470A460021018C4FF67F7319404FF670
:1016F000FF7303EA02131943018470470A4600216D
:10170000018C4FF6FF5319404FF6FF7303EA022393
:101710001943018470470A460021018C4FF2FF7380
:1017200019404FF6FF7303EA0223194301847047FF
:101730000A460021018C4DF6FF7319404FF6FF73E6
:1017400003EA023319430184704730B500230124B2
:101750008C40A3B2048C9C430484048C02FA01F5EF
:10176000ADB22C43048430BD30B5002304248C403A
:10177000A3B2048C9C430484048C02FA01F5ADB23C
:101780002C43048430BD70B5034600200024184665
:10179000183001258D40ACB21D8CA5431D8409B1C4
:1017A000082909D100EB6100056825F07005056086
:1017B0000568154305600EE00D1FC5F34E0528446E
:1017C000056825F4E045056005684FF6FF7606EAF2
:1017D00002263543056070BD21B1028842F0020245
:1017E000028004E002884FF6FD731A4002807047C1
:1017F00021B1028842F00402028004E002884FF620
:10180000FB731A400280704721B1828842F0800247
:10181000828004E082884FF67F731A40828070478E
:1018200002884FF6F7731A40028002880A4302804A
:10183000704782884FF68F731A40828082880A43ED
:101840008280704702894FF6F8731A40028102893C
:101850000A430281704702894FF67F731A40028162
:1018600002890A43028170478184704781857047ED
:10187000818670470187704781877047A0F84010C4
:10188000704702884FF6FF431A40028002880A43DD
:10189000028070470146888E70470146088F704766
:1018A0000146888F70470146B1F8400070470146F5
:1018B000888C70470146088D704702460020138AC5
:1018C0000B400BB1012000E000207047CA430282A8
:1018D000704730B50246002000230024158A05EA2F
:1018E0000103958905EA010413B10CB1012000E060
:1018F000002030BDCA4302827047000010B5044684
:10190000FB48844209D101218803FFF79FF8002199
:101910004FF48040FFF79AF832E0F648844209D14C
:1019200001214804FFF79FF800214FF40030FFF732
:101930009AF825E0F048844209D101218804FFF794
:1019400092F800214FF48020FFF78DF818E0EB4863
:10195000844209D10121C804FFF785F800214FF422
:101960000020FFF780F80BE0E548844208D1012110
:101970000805FFF778F800214FF48010FFF773F89F
:1019800010BD2DE9F04786B005460E460024A2465C
:1019900000BFA1460027B08900B100BF2F462C8AA6
:1019A0004CF6FF700440F08804432C82AC894EF65C
:1019B000F3100440B0883189084371890843044317
:1019C000AC81AC8A4FF6FF400440B0890443AC823E
:1019D00001A8FEF7B4FFC648874202D1DDF810A087
:1019E00001E0DDF80CA0A88900F4004040B10AEB4A
:1019F000CA0000EB0A1031684900B0FBF1F807E0BB
:101A00000AEBCA0000EB0A1031688900B0FBF1F85C
:101A10006420B8FBF0F004012009642101FB108967
:101A2000A88900F4004040B1322000EBC900B0FBAF
:101A3000F1F000F00700044308E0322000EB091049
:101A40006421B0FBF1F000F00F0004432C8106B0DC
:101A5000BDE8F0874FF41651016000218180C180FC
:101A600001810C21418100218181704710B502461E
:101A70000020108A4FF2FF0318400B884C88234344
:101A80008C882343CC8823431843108210BD002147
:101A9000018041808180C180704721B1828942F4F8
:101AA0000052828104E082894DF6FF731A408281E0
:101AB0007047F0B50346002400260025002040F6BC
:101AC0006A17B94200D100BF1846C1F3421401F0B1
:101AD0001F06012707FA06F5012C01D10C3004E09E
:101AE000022C01D1103000E014301AB107682F43E6
:101AF000076002E00768AF430760F0BD1AB1838A50
:101B00000B43838202E0838A8B4383827047028A7D
:101B10004FF6F0731A400282028A0A43028270472B
:101B200082894FF2FF731A40828182890A4382813F
:101B3000704721B1828942F00202828104E08289E9
:101B40004FF6FD731A4082817047028A4FF6DF73A9
:101B50001A400282028A0A430282704721B1028A35
:101B600042F48042028204E0028A4BF6FF731A407C
:101B700002827047C1F3080282807047014688885C
:101B8000C0F308007047818941F0010181817047ED
:101B9000028BD2B20283028B42EA01220283704797
:101BA000028B02F47F420283028B0A430283704756
:101BB00021B1828A42F02002828204E0828A4FF6BA
:101BC000DF731A408282704721B1828A42F010028C
:101BD000828204E0828A4FF6EF731A408282704755
:101BE00021B1828A42F00802828204E0828A4FF6A2
:101BF000F7731A408282704721B1828942F4004211
:101C0000828103E08289C2F30E028281704721B192
:101C1000828A42F40062828204E0828A4FF2FF7379
:101C20001A4082827047828A4FF6FB731A40828282
:101C3000828A0A438282704721B1828A42F002027C
:101C4000828204E0828A4FF6FD731A4082827047D6
:101C500002460020B1F5007F00D100BF13880B4081
:101C60000BB1012000E00020704701F40072B2F5D2
:101C7000007F00D100BFCA430280704770B50246A2
:101C8000002400230025002040F66A16B14200D14E
:101C900000BFC1F3421501F01F03012606FA03F34A
:101CA000012D02D19689334006E0022D02D1168A19
:101CB000334001E0968A33400C12012606FA04F400
:101CC0001688344013B10CB1012000E0002070BD33
:101CD00010B50022002340F66A14A14200D100BFD3
:101CE0000A1201249440A3B2DC43048010BD00001A
:101CF000003801400044004000480040004C0040D3
:101D00000050004010B501F0AEF800F0E1F900F02D
:101D100059FA00F0AFFB00F0FBFB00F01DFC00F0F7
:101D20001BFE00F0F1FC10BD704770477047704714
:101D30001CB54FF48071924804F06FFA9148008806
:101D400091490988CDE9001090480388904802889D
:101D500090498B4805F04CF81CBD08B5FFF7D2FF41
:101D60008DA20321142000F0E5FF01F09DF903E0AE
:101D70004FF4FA7000F0E2F902F0A0F90028F7D170
:101D800000F057FF88A20321142000F0D3FF0121A7
:101D9000894802F000FAF2E0002000F024FA8749B6
:101DA000087008460078012803D1002000F0E9FB04
:101DB0000EE082480078022803D10F2000F0E1FBFA
:101DC00006E07E480078032802D11E2000F0D9FBEF
:101DD000FFF7ADFF7A480088401C80B27849088040
:101DE00019280ADBFFF7A4FF6549764802F0FBF9E2
:101DF00001F0D8F8002072490880022001F02EF985
:101E0000714908600846006818B10846006802F089
:101E100015FA6E48007801287ED16D496DA000F05A
:101E200021FD6B480078442877D1694840783128F3
:101E30007AD101206C49087055480088401C5449EB
:101E400008802C21624804F005FA684908600846B9
:101E50000068002857D008460068401C086064A14C
:101E60006248006804F042FA6249086047E03A219B
:101E70006048006804F0EEF95F49086008460068B1
:101E8000002836D00020096808705A4800685B496D
:101E9000086059480068401C04F04AFA5849086034
:101EA00058A15648006804F0E6F938B93748008868
:101EB000534909880844354908801AE055A14F481C
:101EC000006804F0D8F938B92F4800884C490988CF
:101ED00008442D4908800CE050A14848006804F0EF
:101EE000CAF930B927480088454909880844254976
:101EF00008803FA1002004F0F9F93E4908603D4800
:101F000000680028B3D11F48008800901E4803884D
:101F10001E4802881E4802E01DE010E004E001882F
:101F200040A000F09FFC11E02948407830280DD1F6
:101F300000202D4908704BA000F094FC06E02448D6
:101F40000078312802D14DA000F08CFC00202049FF
:101F500008701E4908702448007801280FD14E48A7
:101F600000F0FEFC4FF4967000F0E8F8002000F05E
:101F7000F7FC00201C49087048A000F073FC0BE738
:101F8000280A002042000020400000203E000020DF
:101F90003C000020BC850008CDF8C2E7C1ACBDD331
:101FA000D6D02E2E00000000CDF8C2E7C1ACBDD3C4
:101FB000B3C9B9A6000000002C00002028000020B2
:101FC0003400002040840008300000205900002028
:101FD000280B0020D4ADCABCBDD3CAD5CAFDBEDD16
:101FE000A3BA25730D0A0000360000203800002037
:101FF0002C00000044000020480000204C0000207D
:10200000500000206F70656E5F636972637569745C
:102010000000000073686F727400000073707572C6
:1020200000000000CAD5B5BDE8A6B4C3D6B8C1EE5D
:10203000A3BAD7DCBCC6CAFD3D25642C204F706511
:102040006E436972637569743D25642C2053686F13
:1020500072743D25642C20537075723D25640D0A01
:1020600000000000CAD5B5BDE8A6B4C3D6B8C1EE1D
:10207000A3BACEDEE8A6B4C30D0A0000CAD5B5BD2A
:10208000D6B8C1EEA3BAB5E7BBFA2FB6E6BBFAD213
:10209000D1B8FCD0C20D0A0000003443E8A6B4C396
:1020A000B2FAC6B7CCDEB3FDB2D9D7F7CDEAB3C921
:1020B0000D0A0000704700BFFEE700BFFEE700BF4B
:1020C000FEE700BFFEE770477047704770470000AB
:1020D0004FF0E020006920F004004FF0E02108619B
:1020E0000920364908700846007800EB4001C1EB32
:1020F000C0104FF6FF7101EAC000314908807047F7
:10210000002120F07F402D4A127842434FF0E02317
:102110005A6100229A6101221A6100BF4FF0E02249
:10212000116901F001021AB101F48032002AF5D0E0
:1021300000224FF0E0231A619A617047002100B934
:10214000704720F07F401E4A128842434FF0E02340
:102150005A6100229A6101221A6100BF4FF0E02209
:10216000116901F001021AB101F48032002AF5D0A0
:1021700000224FF0E0231A619A6100BFE0E770B5DA
:102180000446002600254FF4FA7094FBF0F0C6B226
:102190004FF4FA7094FBF0F100FB114085B205E0BA
:1021A0004FF4FA70FFF7CAFF701EC6B2002EF7D1C7
:1021B00015B12846FFF7C2FF70BD00005400002093
:1021C0005600002008B501210820FEF725FC4FF439
:1021D000E040ADF8000048208DF8030069462A4829
:1021E000FEF75EF908BD10B5044614B10120274979
:1021F00008702648007878B34FF480512248FEF7E3
:10220000E2F958B14FF400511F48FEF7DCF928B14C
:102210004FF480411C48FEF7D6F9E8B90A20FFF7D1
:102220008DFF0020194908704FF480511648FEF7C1
:10223000CAF908B9012010BD4FF400511248FEF749
:10224000C2F908B90220F6E74FF480410E48FEF7C4
:10225000BAF9B8B90320EEE7FFE74FF480510A4816
:10226000FEF7B1F901280DD141030748FEF7ABF99C
:10227000012807D181030448FEF7A5F9012801D1FF
:10228000024908700020D6E7000C014058000020E9
:1022900008B54FF4E060FEF735F81E208DF8000019
:1022A00001208DF8010002208DF8020001208DF838
:1022B00003006846FEF72BF808BD0EB50121042087
:1022C000FEF7B7FB4FF47A70ADF804004720ADF885
:1022D00000000020ADF80600ADF802008DF80800FF
:1022E00069461148FEF7D0FC01210F48FFF7EEFACE
:1022F000012211460C48FFF73EF801210A48FFF77A
:102300001FF80EBD10B5FFF7C3FFFFF7D6FF10BDD6
:1023100010B501210448FFF7DCFA18B10121024889
:10232000FFF7E8FA10BD00000008004010B586B0C5
:10233000044601210420FEF76FFB01218803FEF70C
:102340006BFB18208DF817004FF40070ADF81400E7
:1023500003208DF8160005A96A48FEF7A1F80420AD
:102360008DF817000002ADF8140003208DF8160058
:1023700005A96448FEF794F801940020ADF8100018
:102380000C20ADF80E000020ADF80C00ADF80A00EE
:10239000ADF8080001A95C48FFF7F3FA01215A489B
:1023A000FFF77BFB012240F225515748FFF781FBE5
:1023B00025208DF8000001208DF8030000208DF805
:1023C000010002208DF802006846FDF7A0FF06B06C
:1023D00010BD10B586B0044601210420FEF71CFB99
:1023E00001214804FEF725FB18208DF81700042072
:1023F000ADF8140003208DF8160005A94148FEF73A
:102400004FF804208DF817000820ADF814000320C1
:102410008DF8160005A93B48FEF742F8019400200C
:10242000ADF810000C20ADF80E000020ADF80C0047
:10243000ADF80A00ADF8080001A93448FFF7A1FA89
:1024400001213248FFF729FB012240F225512F4894
:10245000FFF72FFB26208DF8000001208DF80300E8
:1024600000208DF801008DF802006846FDF74FFF4F
:1024700006B010BD10B54FF4E130FFF757FF4FF431
:10248000E130FFF7A6FF10BD2DE9F04107460C46ED
:10249000154600260DE014F8011B3846FFF76AFBCD
:1024A00000BF40213846FFF7D3FB0028F9D0701C4D
:1024B00086B2AE42EFDBBDE8F0810FB430B5CBB0F1
:1024C000054601AC50A800904FF4947101A8009B00
:1024D0004F9A04F0A1FC002000900BE014F8011BBF
:1024E0002846FFF747FB00BF40212846FFF7B0FB17
:1024F0000028F9D020780028F0D14BB030BC5DF82E
:1025000014FB000000080140003801400044004076
:1025100008B501210420FEF77FFA1020ADF8000075
:102520008DF8030003208DF8020069460948FDF785
:10253000B7FF10210748FEF760F808BD10B510215D
:102540000448FEF75CF810BD10B510210148FEF7F5
:1025500054F810BD0008014008B501210420FEF721
:102560005BFA10208DF803003020ADF80000032046
:102570008DF8020069461148FDF792FF00F020F83F
:1025800008BD10B50446002C0BDB10210B48FEF7EC
:1025900034F820210948FEF732F8A0B200F055F8CF
:1025A0000BE010210548FEF72AF820210348FEF72A
:1025B00024F8614288B200F048F810BD00080140DC
:1025C00000B589B001210220FEF733FA0121042071
:1025D000FEF722FA18208DF823000120ADF8200024
:1025E00003208DF8220008A91B48FDF759FF1B485E
:1025F000FEF7DAFE0020ADF81A00ADF816006320F1
:10260000ADF818002320ADF8140000208DF81C0050
:1026100005A91248FEF738FB01A8FEF76AFE602004
:10262000ADF804000020ADF80C000120ADF8060064
:102630000020ADF80A0001A90848FEF7F1FB0121CE
:102640000648FEF77DFE09B000BD10B504462146E0
:102650000248FFF711F910BD000C014000040040D2
:1026600000B589B001210846FEF7E3F901210420F5
:10267000FEF7D2F918208DF823000220ADF82000D3
:1026800003208DF8220008A91E48FDF709FF4FF02E
:102690008040FEF789FE0020ADF81A00ADF8160064
:1026A00044F61F60ADF818004720ADF81400002074
:1026B0008DF81C0005A94FF08040FEF7E5FA01A84F
:1026C000FEF717FE6020ADF804000020ADF80C0006
:1026D0000120ADF806000020ADF80A0001A94FF076
:1026E0008040FEF750FB01218807FEF729FE09B064
:1026F00000BD10B5044621464FF08040FFF7BAF800
:1027000010BD00000008014000B587B0012188031A
:10271000FEF782F901210420FEF77EF918208DF8DA
:102720001B004FF40070ADF8180003208DF81A005C
:1027300006A98048FDF7B4FE48208DF81B004FF431
:102740008060ADF8180003208DF81A0006A97948BA
:10275000FDF7A6FE4FF4165002900020ADF81400CD
:102760000C20ADF812000020ADF81000ADF80E00FE
:10277000ADF80C0002A97048FFF703F9012240F2FE
:1027800025516D48FFF795F94FF4A060FDF7BAFDAC
:1027900025208DF8040001208DF807008DF8050034
:1027A0008DF8060001A8FDF7B2FD01216248FFF790
:1027B00074F907B000BD10B5044621465E48FFF726
:1027C000D9F900BF80215C48FFF742FA0028F9D010
:1027D00010BD70B505460E46002404E0285DFFF7E5
:1027E000EAFF601C84B2B442F8DB70BD70B50446E9
:1027F000002504E0605DFFF7DEFF681CC5B2605D88
:102800000028F7D170BD10B50246012000E050430A
:102810000B1EA1F10101FAD110BD2DE9F0410646D0
:102820000C46002512E0601B411E0A20FFF7EBFF5B
:10283000B6FBF0F00A21B0FBF1F201FB120000F14F
:1028400030073846FFF7B7FF681CC5B2A542EADB80
:10285000BDE8F08170B504460D46E0B2FFF7ABFF6E
:10286000204670BD0FB400B59BB01DA8019002A812
:10287000019A1C9904F0E6FA0020019002A8FFF7E3
:10288000B5FF1BB05DF814FB70B52C49C86803F0A8
:1028900081FF04460B46294890F90810224628A0DB
:1028A000FFF7E0FF70BD10B540F225512248FFF759
:1028B000E5F901283CD12048FFF760F9C4B222486D
:1028C000007858B9402C2DD12048007850BB012009
:1028D0001D49087000201E49087023E01A4800783E
:1028E00001280FD10D2C03D102201749087019E0DF
:1028F000184817490978445415480078401C144971
:1029000008700FE01048007802280BD10A2C09D17A
:1029100000200D4908700F490D4A12788854012093
:102920000A49087040F225510348FFF7D1F900BF6A
:1029300010BD000000080140003801408C0B002051
:1029400025642C25640D0A005A000020590000203F
:102950005B000020280B002010B5FFF781FE10BDA2
:102960002DE9F04104460A49204603F078FD8046EF
:10297000084903F042FD0746074903F0E6FC064616
:1029800003F0D5FE85B22846FFF7B3FEBDE8F0811F
:10299000000034430000FA440000FA43F94900E023
:1029A000521C11F8013B002BFAD15008704700204F
:1029B00001E0411CC8B20A28FBDB704710B54FF498
:1029C0000071F148FDF71BFE4FF48071EE48FDF7F2
:1029D00014FEFFF7ECFF4FF40071EB48FDF70DFE1E
:1029E00010BD08B501210820FEF716F801210846A0
:1029F000FEF712F80121E548FDF723FE4FF4807041
:102A0000ADF8000003208DF8020010208DF80300BF
:102A10006946DD48FDF744FD4FF40070ADF8000055
:102A20006946D948FDF73CFDFFF7C8FF08BD10B562
:102A30004FF40071D448FDF7E0FD4FF48071D248A7
:102A4000FDF7DBFDFFF7B3FF4FF40071CE48FDF754
:102A5000D6FDFFF7ACFF4FF48071CB48FDF7CFFDFB
:102A6000FFF7A5FF10BD10B54FF40071C648FDF784
:102A7000C4FDFFF79CFF4FF48071C348FDF7BDFD17
:102A8000FFF795FF4FF40071BF48FDF79CFD08B1BB
:102A9000012400E000244FF48071BB48FDF7AFFD36
:102AA000FFF785FF204610BD70B50446002528E0DD
:102AB00004F0800028B14FF40071B348FDF79DFD8C
:102AC00004E04FF40071B048FDF799FDFFF76FFF88
:102AD0004FF48071AC48FDF790FDFFF768FF4FF4AD
:102AE0008071A948FDF78BFD072D04D14FF40071CB
:102AF000A548FDF782FD6006040EFFF758FF681C2D
:102B0000C5B2082DD4DB70BD10B50446FFF78FFFAA
:102B10007820FFF7C9FFFFF7A6FF0020FFF7C4FFEB
:102B2000FFF7A1FF2046FFF7BFFFFFF79CFFFFF76E
:102B300045FF10BD10B50446FFF779FF7820FFF779
:102B4000B3FFFFF790FF4020FFF7AEFFFFF78BFFCB
:102B50002046FFF7A9FFFFF786FFFFF72FFF10BD05
:102B600070B5002418E004F1B001C8B2FFF7CCFF43
:102B70000020FFF7C9FF1020FFF7C6FF002507E080
:102B8000834901EBC501085DFFF7D4FF681CC5B29E
:102B9000802DF5DB601CC4B2082CE4DB70BD70B581
:102BA00004460D4605F1B001C8B2FFF7ADFFA11C08
:102BB000C1F3031141F01000FFF7A6FFA11C01F0C3
:102BC0000F0141F00100FFF79FFF70BD10B58D2090
:102BD000FFF79AFF1420FFF797FFAF20FFF794FF4E
:102BE00010BD10B58D20FFF78FFF1020FFF78CFF71
:102BF000AE20FFF789FF10BD70B50646002415E032
:102C000004F1B001C8B2FFF77FFF0020FFF77CFF9F
:102C10001020FFF779FF002504E03046FFF78AFF18
:102C2000681CC5B2822DF8DB601CC4B2082CE7DB3F
:102C300070BD10B50020FFF7DFFF10BD2DE9F0419A
:102C400007460E46904600250024A8F12000C5B294
:102C5000812F02DD0027B01CC6B231463846FFF78F
:102C60009EFF002407E004EB05114A4A505CFFF781
:102C700061FF601CC4B2082CF5DB701CC1B2384681
:102C8000FFF78DFF002408E004EB05110831414AED
:102C9000505CFFF74FFF601CC4B2082CF4DBBDE8AA
:102CA000F08110B50246012000E050430B1EA1F157
:102CB0000104E1B2F9D110BD2DE9F047054689467E
:102CC00090461E46DDF820A000242FE0301B401E59
:102CD000C1B20A20FFF7E5FFB8FBF0F00A21B0FB14
:102CE000F1F201FB1207A7B9BAF1000F08D00821D1
:102CF00001FB0451C8B230224946FFF79FFF07E0AD
:102D0000082101FB0451C8B220224946FFF796FF73
:102D10000AE007F13001CAB2082101FB0451C8B230
:102D20004946FFF78BFF00BF601CC4B2B442CDDB45
:102D3000BDE8F0872DE9F04707468846164600258E
:102D40008BE03078A0284EDD002545E0702F04DDB3
:102D5000002708F1020000F0FF083078094911F857
:102D60001510884237D17078012101EB4501054AE1
:102D7000515C88422FD141463846FFF710FF0024AE
:102D800011E00000CC090020000C014000023000DE
:102D90009C0B00205C00002004EB45117D4A505C38
:102DA000FFF7C8FE641C102CF6D308F10100C1B275
:102DB0003846FFF7F4FE002407E004EB451110311C
:102DC000744A505CFFF7B6FE641C102CF5D307F173
:102DD0001000C7B204E06D1C6F4800688542B5D38F
:102DE00000BFB61C39E07A2F04DD002708F102008D
:102DF00000F0FF083178694803F02CFA8146B9F1F8
:102E0000000F29D041463846FFF7C9FE002409E0EB
:102E100099F80010203904EB0111614A505CFFF76A
:102E200089FE641C082CF3D308F10100C1B23846B6
:102E3000FFF7B5FE00240AE099F80010203904EBF2
:102E400001110831564A505CFFF774FE641C082CCF
:102E5000F2D307F10800C7B2761C307800287FF45F
:102E600070AFBDE8F08710B5FFF7BBFDAE20FFF7F0
:102E70004BFE0020FFF748FE1020FFF745FE4020E4
:102E8000FFF742FEB020FFF73FFE8120FFF73CFE38
:102E9000FF20FFF739FEA120FFF736FEA620FFF73F
:102EA00033FEA820FFF730FE3F20FFF72DFEC8209D
:102EB000FFF72AFED320FFF727FE0020FFF724FEAE
:102EC000D520FFF721FE8020FFF71EFED820FFF758
:102ED0001BFE0520FFF718FED920FFF715FEF12095
:102EE000FFF712FEDA20FFF70FFE1220FFF70CFEAD
:102EF000DB20FFF709FE3020FFF706FE8D20FFF7ED
:102F000003FE1420FFF700FEAF20FFF7FDFDFFF7E3
:102F100045FD21490860FFF78CFE10BD2DE9F05FEB
:102F200006460F4690461C46DDF828A04FF0000BE1
:102F3000E11704EB5171C910A4EBC10131B920466E
:102F4000E11704EB5171C1F3C70506E02046E11714
:102F500004EB5171C910491CCDB23D4615E029461C
:102F60003046FFF71CFEB1460BE059464A1C1FFADB
:102F700082FB1AF80100FFF7DDFD09F1010000F006
:102F8000FF09C145F1DB681CC5B2A542E7DBBDE81E
:102F9000F09F00004C060020000A00206C09002071
:102FA0005C00002010B54FF40071794803F035F94A
:102FB00000207849088010BD7648008808B90120B3
:102FC00070477448008874490988884203D10020FA
:102FD00070490880F4E76F4800886F490880012035
:102FE000EEE72DE9F04104460D46C826204603F0E1
:102FF0003BF987B23A4621466848FFF745FA0FE0A9
:10300000FFF7DAFF48B92946614803F011F920B10A
:10301000FFF7C8FF0020BDE8F0810A20FFF78EF817
:10302000301EA6F10101CEB2EAD10120F3E730B59E
:1030300089B004460D46FFF7B5FF2A4658A101A8FE
:1030400003F0D6FE5AA101A8FFF7CBFF20B92A460C
:1030500021465248FFF718FA09B030BD70B5054651
:10306000002400BFFFF7A8FFA8B952A1484803F009
:10307000DFF8044624B951A15548FFF71EFA0AE0CB
:103080003A21204603F0E6F8044614B1641C2046B9
:1030900070BD0020FCE70520FFF750F8681E85B2E0
:1030A000002DDFDC0020F3E710B5FFF77BFF49A11F
:1030B0004748FFF702FA03E04FF4FA70FFF73EF8D3
:1030C00046A147A0FFF78DFF0028F5D146A1404853
:1030D000FFF7F3F903E04FF4FA70FFF72FF83FA181
:1030E00044A0FFF77EFF0028F5D146A13848FFF73E
:1030F000E4F903E04FF4FA70FFF720F837A145A098
:10310000FFF76FFF0028F5D146A13148FFF7D5F949
:1031100003E04FF4FA70FFF711F845A146A0FFF75E
:1031200060FF0028F5D14DA12948FFF7C6F903E05B
:103130004FF4FA70FFF702F84CA14EA0FFF751FFD1
:103140000028F5D157A12248FFF7B7F910BD10B5F7
:1031500040F225511148FEF791FDB8B10D480088A5
:10316000B0F5007F02D300200A4908800B48001DFB
:103170000088C1B2074802880088401C054B1880AF
:103180000348815420210548FEF76FFD10BD000063
:103190001C100020040A0020060A00200044004001
:1031A00041542B43495053454E443D25640D0A007C
:1031B0003E0000004950442C0000000022495044C9
:1031C00022206E6F7420666F756E640D0A00000019
:1031D00000380140312E2041540D0A004F4B0000B1
:1031E00041540D0A00000000322E2043574D4F4439
:1031F000450D0A0041542B43574D4F44453D310D79
:103200000A000000332E2041542B435744484350BA
:103210000D0A000041542B4357444843503D312C84
:10322000310D0A00342E2043574A41500D0A000048
:10323000474F54204950000041542B43574A4150B6
:103240003D2256616E6365222C223331343135398B
:103250003236353335220D0A00000000352E20436A
:10326000495053544152540D0A000000434F4E4EF2
:103270004543540041542B43495053544152543D0B
:1032800022544350222C226D717474732E6865632E
:103290006C6F7564732E636F6D222C313838330D6B
:1032A0000A000000362E2045535038323636204969
:1032B0006E6974204F4B0D0A0000000070B5044683
:1032C0000E460025206898B901202073304604F08E
:1032D0006FFB20602068E0B100206060A66003E022
:1032E0000020216848556D1CA068A842F8D810E05D
:1032F0000220207303E00020216848556D1CA0685F
:10330000A842F8D800206060A068B04201D2002036
:10331000206070BD10B50446207B012802D12068D2
:1033200004F01EFB002020606060A060207310BDD0
:103330000246002301230DE002F07F000870D2094D
:103340002AB1087840F080000870491C01E0184656
:1033500070475B1C042BEFDD4FF0FF30F8E7F0B552
:1033600004460D462646012300201060002114E08B
:10337000775C07F07F07106807FB03001060705C44
:1033800000F0800008B9481CF0BDDB01B3F5001F58
:1033900002D36FF00100F7E7491CA942E8DB4FF0C8
:1033A000FF30F1E7F8B50446FF2720780511012D1D
:1033B00001DB0E2D01DD3846F8BD032D24D10020A0
:1033C00000906A460421601CFFF7C9FF2044461C98
:1033D0000098022803D3207800F0010008B1FF20F4
:1033E000EAE77078317840EA0120801C0099884231
:1033F00001D9FF20E0E7F8A1B01C02F019FF08B1E5
:103400000F2700E0032700E02F463846D4E72DE9D8
:10341000FF4F83B082468B469146159C00250020C5
:1034200002900F270190484602F01EFF0FFA80F825
:10343000B9F1000F03D1012007B0BDE8F08F08F10A
:103440000200384487B2109808B145F0020512987E
:1034500078B145F00405129802F006FFC0B2029060
:10346000139802F001FF01460298001D08443844F9
:1034700087B2119820B1012804D0022808D104E0B5
:1034800000BF07E045F00C0504E045F0140501E03D
:103490000220D1E700BF149808B145F02405BAF125
:1034A000000F02D0BBF1000F01D10320C4E745F0AB
:1034B000C005504602F0D8FE0646584602F0D4FE3B
:1034C0003044001D384487B239462046FFF7F6FEE7
:1034D000206808B90420AFE73946206802F09DFE55
:1034E00010216268501C606020688154D4E9002378
:1034F000D118781FFFF71CFF00B201900198002837
:1035000004DA2046FFF706FF052095E76168019879
:103510000844606000216268501C6060206881542B
:1035200004216268501C6060206881544D216268EB
:10353000501C60602068815451216268501C60609A
:103540002068815454216268501C60602068815456
:103550006268501C60602068815404216268501CBD
:103560006060206881546168481C60602068455430
:103570000698010A6268501C6060206881540698B1
:10358000C1B26268501C606020688154C8F3072192
:103590006268501C6060206881546268501C6060E2
:1035A000206800F80280D4E9001288184246494693
:1035B00002F06FFE60684044606005F00400B8B33C
:1035C0000026139808B986A01390129802F04CFEBA
:1035D00086B2310A6268501C60602068815462685B
:1035E000501C606020688654D4E900128818324666
:1035F000129902F04EFE606830446060139802F049
:1036000033FE86B2310A6268501C606020688154C3
:103610006268501C606020688654D4E900128818E3
:103620003246139902F035FE60683044606000BF96
:1036300005F08000C8B1504602F016FE86B2310A8D
:103640006268501C6060206881546268501C606031
:1036500020688654D4E9001288183246514602F098
:1036600018FE60683044606000BF05F04000C8B1DB
:10367000584602F0F9FD86B2310A6268501C60605B
:10368000206881546268501C606020688654D4E9C8
:10369000001288183246594602F0FBFD606830443B
:1036A000606000BF0020C7E610B504460221204636
:1036B000FFF704FE206808B9012010BDE021626810
:1036C000501C60602068815400216268501C60605A
:1036D000206881540020F0E701464878022801D094
:1036E00001207047887810B18878012801D1C87806
:1036F000F7E7FF20F5E72DE9FF4F83B08346174634
:103700009946139C002500260020029001908046D7
:10371000BBF1000F03D1012007B0BDE8F08F0026F8
:103720000AE00498805D232803D00498805D2B284C
:1037300001D10220F0E7761C0498805D0028F0D1CA
:1037400048F03008119808B148F0010806EB09006C
:10375000851C109820B1012804D002280AD105E068
:1037600000BF09E048F00208AD1C05E048F004087D
:10377000AD1C01E00320CFE700BF67B33878022813
:1037800021D14FF0000A00BF50460AF1010A385C0F
:103790007D28F9D1AAF1030A0AF1070002900298E4
:1037A000A9EB000AE81CA0EB0A012046FFF786FD02
:1037B000206808B90420AFE7EA1CA2EB0A012068E0
:1037C00002F02BFD1FE0691D2046FFF777FD206802
:1037D00040B90420A0E70AE024637265710000008C
:1037E00000000000691D206802F017FD0BE0691D54
:1037F0002046FFF763FD206808B904208CE7691DA7
:10380000206802F00AFD6168481C6060206800F8CA
:103810000180D4E9000281182846FFF789FD019054
:103820000198002804DA2046FFF774FD052073E7AD
:103830006168019808446060C6F307216268501C03
:103840006060206881546268501C60602068865403
:10385000D4E9001288183246049902F01AFD606813
:1038600030446060109860B14FEA1B216268501CC0
:103870006060206881546268501C6060206800F8B5
:1038800002B0C7B1387802280BD1D4E900128818E9
:103890003946029A02F0A8FC616802980844606008
:1038A00009E0D4E9001288184A46394602F09CFC27
:1038B00060684844606000202EE72DE9F04190B038
:1038C00004460D4616469846169F2346F7A2302119
:1038D00004A8009503F074FA01200021CDE900014D
:1038E00033460A4604A9CDE902070A20FFF703FF81
:1038F00018B1012010B0BDE8F0810020FAE72DE9F1
:10390000F04F85B080460D46914601200490002777
:10391000002600244FF0000A404602F0A5FC00F10A
:103920000D0B584604F044F807461FB9049805B03B
:10393000BDE8F08F4246E3A1384603F059FA384615
:1039400002F092FCC6B2F01D00EB050AAAEB0500DE
:1039500004F02EF8044624B9384604F001F804981F
:10396000E5E70220207000206070A67032463946DC
:10397000E01C02F039FC290EF01C2154C5F307416C
:10398000301D2154C5F30721701D2154B01D25544D
:1039900001200021CDE9000153462246CDA1CDE909
:1039A00002090A20FFF7A7FE08B900200490384654
:1039B00003F0D6FF204603F0D3FF0498B7E72DE9C4
:1039C000F84380460C4615461E462F2108F1060096
:1039D00002F040FC07460020009017B90120BDE826
:1039E000F8837F1C6A46042108F10100FFF7B7FC49
:1039F000252003F0DDFF2060206808B90220EEE7F3
:103A00002521206802F009FC24223946206802F0B2
:103A1000EBFB243700982C3830803188481C03F0A9
:103A2000C7FF2860286820B9206803F099FF0320A9
:103A3000D5E73288511C286802F0EFFB32883946FE
:103A4000286802F0D1FB0020C9E72DE9FF5F074697
:103A50000D469046384602F007FC86B2284602F032
:103A600003FC1FFA80FA4FF00009F01D03F0A0FFDD
:103A700004461CB9012004B0BDE8F09FF11D2046AA
:103A800002F0CBFB94A0016821608088A0803246C0
:103A90003946204602F0FDFB284602F0E5FB83464E
:103AA0000120002100915B462A46CDE902080191E0
:103AB00021460A20FFF71FFE10B94FF0000901E070
:103AC0004FF00109204603F04BFF4846D3E72DE9AC
:103AD000FF5F8046174699460E9C0026B246B346C5
:103AE0000025B8F1000F03D1012004B0BDE8F09F1C
:103AF0000BE057F8250008B90220F6E757F8250033
:103B000002F0B2FB0644681CC5B24D45F1DB09EB7F
:103B10004900801C00EB060A0AF105012046FFF768
:103B2000CDFB206808B90320DFE782216268501CC2
:103B3000606020688154D4E9000281185046FFF784
:103B4000F7FB0FFA80FBBBF1000F04DA2046FFF70A
:103B5000E1FB0420C9E76068584460604FEA18211F
:103B60006268501C6060206881546268501C60600C
:103B7000206800F80280002524E057F8250002F0B4
:103B800073FB0646C6F307216268501C606020681C
:103B900081546268501C606020688654D4E9002318
:103BA000D01857F82510324602F073FB6068304495
:103BB00060600198C1B26268501C606020688154E6
:103BC000681CC5B24D45D8DB00208EE70146FF20BA
:103BD0008A78A2B9CA78142A11D10A7932B1012A95
:103BE00005D0022A04D0802A06D103E000BF00BF1E
:103BF000002003E0012001E0022000BF00BF704769
:103C00002DE9F05F80460F4691461C460026B246DD
:103C1000B3460025B8F1000F02D10120BDE8F09FA6
:103C20000BE057F8250008B90220F7E757F8250000
:103C300002F01AFB0644681CC5B24D45F1DB0220B8
:103C400000EB490000EB060A0AF105012046FFF7E8
:103C500035FB206808B90320E0E7A2216268501C08
:103C6000606020688154D4E9000281185046FFF753
:103C70005FFB0FFA80FBBBF1000F04DA2046FFF771
:103C800049FB0420CAE76068584460604FEA182185
:103C90006268501C6060206881546268501C6060DB
:103CA000206800F80280002538E000002473797352
:103CB0002F25732F25732F64702F706F73742F6AE5
:103CC000736F6E007B2264735F6964223A222573EE
:103CD000227D00002464700024637273702F000042
:103CE00057F8250002F0C0FA0646C6F307216268BD
:103CF000501C6060206881546268501C60602068BD
:103D00008654D4E90023D01857F82510324602F023
:103D1000C0FA606830446060681CC5B24D45DFDBA6
:103D200000207BE7014601208A781AB9CA781E2A4A
:103D300000D1002070472DE9FC5F81460D461446F6
:103D40001E46DDE90C8B99F8000000F00F0A0020F8
:103D500001900AF008000090CAF341008BF80000BF
:103D600001AA042109F10100FFF7F9FA4844471CB0
:103D70000198022802D30AF0010010B1FF20BDE82B
:103D8000FC9F7878397840EA012020802088801CC8
:103D90000199884201D9FF20F1E7AFF2C451B81C64
:103DA00002F046FA08B10F20E9E79BF8000020B1C5
:103DB00001283DD0022877D13BE0009808B1FF20D0
:103DC000DDE72188481C03F0F3FD2860286808B966
:103DD000FF20D4E72288511C286802F01EFA2288AE
:103DE000B91C286802F000FA0198801E2188401A48
:103DF000A8F80000B8F80010481C03F0D9FD3060A6
:103E0000306820B9286803F0ABFDFF20B7E7B8F8A9
:103E10000020511C306802F000FAB8F80020B4F815
:103E200000C0BB1C0CEB0301306802F0DDF94FE071
:103E300000BF2088801C0199884201D9FF209EE79D
:103E40002088C01C395C2088801C385C41EA002135
:103E50000E9801800E9808B9FF2090E72188481C31
:103E600003F0A6FD2860286808B9FF2087E72288AC
:103E7000511C286802F0D1F92288B91C286802F088
:103E8000B3F90198001F2188401AA8F80000B8F87B
:103E90000010481C03F08CFD3060306828B9286899
:103EA00003F05EFDFF206AE710E0B8F80020511C27
:103EB000306802F0B2F9B8F80020B4F800C03B1D39
:103EC0000CEB0301306802F08FF901E0FF2056E7A8
:103ED00000BF2B21284602F0BDF920B92321284636
:103EE00002F0B8F908B1FF2049E7002047E770B5B4
:103EF00005460C4604212046FFF7E0F9206808B982
:103F0000012070BD40216268501C606020688154AF
:103F100002216268501C6060206881542912626826
:103F2000501C6060206881546268501C606020688A
:103F300085540020E5E701464878022801D0012099
:103F40007047887820B9C8780A2801D10020F7E79F
:103F50000120F5E770B505460C4604212046FFF721
:103F6000ADF9206808B9012070BD50216268501C6D
:103F700060602068815402216268501C6060206883
:103F8000815429126268501C606020688154626804
:103F9000501C6060206885540020E5E701464878A1
:103FA000022801D001207047887820B9C8780A28F3
:103FB00001D10020F7E70120F5E770B505460C4672
:103FC00004212046FFF77AF9206808B9012070BD66
:103FD00062216268501C606020688154022162681E
:103FE000501C60602068815429126268501C606017
:103FF000206881546268501C6060206885540020ED
:10400000E5E702465078022801D0012070479078F9
:10401000B0EB112F05D1D078CBB2984201D100205E
:10402000F4E70120F2E770B505460C46042120466E
:10403000FFF744F9206808B9012070BD702162685B
:10404000501C60602068815402216268501C6060CE
:104050002068815429126268501C60602068815475
:104060006268501C6060206885540020E5E70146C6
:104070004878022801D001207047887820B9C87894
:104080000A2801D10020F7E70120F5E710B5044622
:1040900002212046FFF712F9206808B9012010BD5F
:1040A000C0216268501C60602068815400216268F1
:1040B000501C6060206881540020F0E770B58AB021
:1040C0000020069007900890099000260125D9A0AD
:1040D000DA4BDBA2DDA10090E948FEF7EEF906A875
:1040E000002102910391CDE90410084601210B0241
:1040F000D0A2CDE90010D149D1A0FFF788F900285E
:1041000042D1079A91B20698FEF791FFFA20FEF786
:10411000A5FF0446002C33D02046FFF743F90228C0
:104120002ED12046FFF7D8FA062823D2DFE800F088
:1041300003090E13181DD3A1D148FEF7BEF90025BF
:104140001DE0D5A1CE48FEF7B8F918E0D9A1CC48BA
:10415000FEF7B3F913E0E0A1C948FEF7AEF90EE0AF
:10416000E5A1C748FEF7A9F909E0ECA1C448FEF7AC
:10417000A4F904E0F4A1C248FEF79FF900BF00BF14
:1041800006A8FFF7C7F803E0F6A1BD48FEF795F9CA
:1041900028460AB070BD70B586B004460D460026AC
:1041A0000020029003900490059007E054F8262028
:1041B000F5A1B348FEF781F9701CC6B2AE42F5DB3B
:1041C00002A82B462246002100901420FFF77FFC16
:1041D00038B9039A91B20298FEF729FF02A8FFF7B7
:1041E00099F806B070BD70B588B005460C46002041
:1041F000049005900690079023462A46E8A1A0481F
:10420000FEF75BF9204602F02FF8064604A80121CC
:10421000002200923346CDE901210390224629462F
:104220000A20FFF768FA38B9059A91B20498FEF7A8
:10423000FEFE04A8FFF76EF808B070BD2DE9F04F40
:104240008DB00746002009900A900B900C900890C2
:104250000790069005900025049000268046814630
:104260003846FFF79FF80546E81E0D287BD2DFE8A9
:1042700000F02B636C88A4C9ADC9BBC9C9C90700CC
:1042800005AB08AA07A93846FFF799FB0646D6B939
:10429000BDF814000090CAA17948DDE90723FEF7B4
:1042A0000CF909AADDE90701FFF7CFFB58B9CDA149
:1042B0007348FEF702F90A9A91B20998FEF7B7FE21
:1042C00009A8FFF727F8A0E0CC4804A905AA08AB85
:1042D000CDE90021029006AA07A93846FFF72BFD79
:1042E0000646002E27D1BDF814000899CDE900102C
:1042F000BDF81830C2A16248079AFEF7DEF80898A8
:1043000001F090F88246CDA1504601F091FC834621
:10431000CCA1584601F08CFC04464CB1E068012861
:1043200003D11E20FEF72DF902E00020FEF729F947
:10433000504600F075FA68E03846FFF7FCFD18B902
:10434000C2A14F48FEF7B9F85FE03846FFF726FEF6
:10435000B0B9C6A14A48FEF7B0F809A90A20FFF78C
:104360002CFE68B900E04DE0C6A14548FEF7A5F86F
:104370000A9A91B20998FEF75AFE09A8FEF7CAFFF9
:1043800043E09E4801883846FFF73BFEA0B9C3A131
:104390003B48FEF792F809A90A20FFF744FE58B9F6
:1043A000C4A13748FEF789F80A9A91B20998FEF736
:1043B0003EFE09A8FEF7AEFF27E03846FFF757FE9E
:1043C00018B9C3A12E48FEF778F81EE03846FFF76B
:1043D000FDFB20B9C4A12A48FEF76FF803E0C9A18C
:1043E0002748FEF76AF810E03846FFF79BFC20B933
:1043F000CBA12348FEF761F803E0D0A12048FEF7E7
:104400005CF802E04FF0FF3600BF00BFFEF7CAFDC8
:10441000701C10B90DB0BDE8F08F0F2D01D0032D29
:1044200005D1079803F09CFA089803F099FA00BFA9
:10443000F0E7000054657374310000003C8600080A
:10444000643849644E587441363600004F6E654EEC
:1044500065745F4465764C696E6B0D0A50524F4926
:10446000443A2025732C09544F4B454E3A2025736E
:104470002C2044455649443A25730D0A000000009B
:1044800000380140546970733A09C1ACBDD3B3C957
:10449000B9A60D0A000000005741524E3A09C1ACBE
:1044A000BDD3CAA7B0DCA3BAD0ADD2E9B4EDCEF388
:1044B0000D0A00005741524E3A09C1ACBDD3CAA7FC
:1044C000B0DCA3BAB7C7B7A8B5C4636C69656E742E
:1044D00069640D0A000000005741524E3A09C1AC10
:1044E000BDD3CAA7B0DCA3BAB7FECEF1C6F7CAA740
:1044F000B0DC0D0A000000005741524E3A09C1AC31
:10450000BDD3CAA7B0DCA3BAD3C3BBA7C3FBBBF25E
:10451000C3DCC2EBB4EDCEF30D0A00005741524E9E
:104520003A09C1ACBDD3CAA7B0DCA3BAB7C7B7A814
:10453000C1B4BDD328B1C8C8E7746F6B656EB7C787
:10454000B7A8290D0A0000004552523A09C1ACBD76
:10455000D3CAA7B0DCA3BACEB4D6AAB4EDCEF30DBD
:104560000A0000005741524E3A094D5154545F50D1
:1045700061636B6574436F6E6E6563742046616939
:104580006C65640D0A0000005375627363726962A2
:104590006520546F7069633A2025730D0A0000008E
:1045A0005075626C69736820546F7069633A202596
:1045B000732C204D73673A2025730D0A000000000C
:1045C000636D6469643A2025732C207265713A200A
:1045D00025732C207265715F6C656E3A2025640D21
:1045E0000A000000546970733A0953656E642043F1
:1045F0006D64526573700D0A00000000080A002007
:10460000746F7069633A2025732C20746F7069632E
:104610005F6C656E3A2025642C207061796C6F6147
:10462000643A2025732C207061796C6F61645F6C33
:10463000656E3A2025640D0A000000007061726109
:104640006D7300006D6F746F7200000054697073B9
:104650003A094D515454205075626C697368205367
:10466000656E64204F4B0D0A0000000054697073A2
:104670003A09526576205075626C697368526563B9
:104680000D0A0000546970733A0953656E64205036
:1046900075626C69736852656C0D0A0054697073B9
:1046A0003A09526576205075626C69736852656C80
:1046B0000D0A0000546970733A0953656E64205006
:1046C00075626C697368436F6D700D0A00000000BD
:1046D000546970733A09526576205075626C69733B
:1046E00068436F6D700D0A00546970733A094D513B
:1046F000545420537562736372696265204F4B0D89
:104700000A000000546970733A094D515454205303
:104710007562736372696265204572720D0A0000EA
:10472000546970733A094D51545420556E53756253
:10473000736372696265204F4B0D0A005469707390
:104740003A094D51545420556E5375627363726922
:104750006265204572720D0A00000000FE48006884
:10476000704770B504460D462CB9AC4201D001200B
:1047700070BD0020FCE70DB90120F9E705E02078C5
:1047800008B90020F4E7641C6D1C207801F026FDB8
:104790000646287801F022FD8642F0D0207801F00C
:1047A0001DFD0646287801F019FD301AE0E770B5C6
:1047B0000446204601F058FD451C2846E749096893
:1047C0008847061E00D170BD2A462146304601F0BA
:1047D0000BFD3046F7E730B9E149E04A1160E149A5
:1047E000E14A11607047016809B1016800E0DC49E5
:1047F000DA4A1160416809B1416800E0D949DA4AF2
:10480000116000BFEEE710B52820D4490968884739
:1048100004461CB12821204601F0FFFC204610BDB3
:1048200070B5044622E02568A08900F4807020B9A4
:10483000A06810B1A068FFF7F3FFA08900F48070B2
:1048400028B9206918B1C849206909688847A08932
:1048500000F4007028B9206A18B1C349206A0968B9
:1048600088472046C049096888472C46002CDAD181
:1048700070BD2DE9F04F8BB083468A460020044678
:1048800005460026B94F0021884689460990012037
:1048900008909AF800002D2802D1B54F0AF1010ABC
:1048A0009AF80000302801D10AF1010A9AF80000B4
:1048B000312822DB9AF8000039281EDC00BF1AF8E4
:1048C000011BA1F1300001F021FF0022A94BCDE92D
:1048D00006012046294601F0A7FECDE90401DDE9E5
:1048E000062301F0FAFD04460D469AF80000302830
:1048F00003DB9AF800003928E1DD9AF800002E2841
:1049000030D19AF8010030282CDB9AF801003928C0
:1049100028DC0AF1010A00BF1AF8011BA1F13000DE
:1049200001F0F4FE0022934BCDE906012046294612
:1049300001F07AFECDE90401DDE9062301F0CDFDA9
:1049400004460D460022894B4046494601F066FE6A
:10495000804689469AF80000302803DB9AF8000068
:104960003928D9DD9AF80000652803D09AF80000AC
:10497000452823D10AF1010A9AF800002B2802D118
:104980000AF1010A08E09AF800002D2804D14FF03E
:10499000FF3008900AF1010A08E01AF8010B3038DC
:1049A000099901EB810100EB410009909AF80000A0
:1049B000302803DB9AF800003928EEDDDDE9082114
:1049C00001FB02F001F0A2FE42464B46CDE9000198
:1049D00001F083FD02460B46CDE902010020654946
:1049E00003F01CF822462B46CDE906013046394635
:1049F00001F01AFECDE90401DDE9062301F014FE01
:104A000004460D46CBE906452046294601F0A3FEA3
:104A1000CBF814000320CBF80C0050460BB0BDE8D7
:104A2000F08F0146491E41EA610141EAA10141EAD4
:104A3000211141EA212141EA2141481C70472DE919
:104A4000F04104460E460CB1206810B90020BDE8C4
:104A5000F081A06806446068B04203DBA16820686A
:104A60000844F4E73046FFF7DCFF074638463B4989
:104A70000968884705463DB93B4920680968884769
:104A8000002060602060E2E725B12846D4E90012EA
:104A900001F0AAFB344920680968884767602560EF
:104AA000A0682844D3E770B504460CB1206808B963
:104AB000002070BDA16820684518284601F0D4FB8D
:104AC000A1680844F5E72DE9FC4782460E464FF001
:104AD0000009DAE90645002213462046294601F07E
:104AE0006DFE13D12EB102213046FFF7A8FF81469B
:104AF00004E002201949096888478146B9F1000F8E
:104B000003D01DA00088A9F800009FE0DAF8140087
:104B100001F0FCFD074622462B4601F07FFD21F007
:104B200000410022154BCDE9000101F047FE3ED8BF
:104B3000134A144B2046294601F040FE37D8002284
:104B4000114B2046294601F051FE30D806B31521FD
:104B50003046FFF774FF19E00C0A0020100A00200D
:104B6000B179000861790008140A00200000F03FC4
:104B70000000F0BF00002440300000000000B03C06
:104B80000000C0FFFFFFDF410000E0C1814604E0FC
:104B90001520FA49096888478146B9F1000F55D0B8
:104BA000F7A14846DAF8142002F022F94EE02EB1BF
:104BB00040213046FFF743FF814604E04020EF49A3
:104BC000096888478146B9F1000F3FD02046294641
:104BD00002F058FE074622462B4601F01FFD21F049
:104BE00000410022E74BCDE9000101F0E7FD0FD8BD
:104BF00025F000412746E44AE44B384601F0DEFD4B
:104C000006D222462B46E2A1484602F0F1F81DE00A
:104C100025F000412746E04AE04B384601F0CEFD42
:104C200007D325F000410022DD4B384601F0DEFDC0
:104C300006D222462B46DBA1484602F0D9F805E011
:104C400022462B46D8A1484602F0D2F84846BDE895
:104C5000FC87014600220878302806DB08783928CE
:104C600003DC08783038024415E00878412806DB78
:104C70000878462803DC0878373802440BE00878C7
:104C8000612806DB0878662803DC08785738024478
:104C900001E0002070471201491C0878302806DB2B
:104CA0000878392803DC08783038024415E00878A1
:104CB000412806DB0878462803DC087837380244A8
:104CC0000BE00878612806DB0878662803DC0878A2
:104CD0005738024401E00020DCE71201491C087843
:104CE000302806DB0878392803DC0878303802449D
:104CF00015E00878412806DB0878462803DC0878A8
:104D0000373802440BE00878612806DB087866280B
:104D100003DC08785738024401E00020BAE71201AA
:104D2000491C0878302806DB0878392803DC087825
:104D30003038024415E00878412806DB0878462818
:104D400003DC0878373802440BE00878612806DB7A
:104D50000878662803DC08785738024401E0002010
:104D600098E7104696E72DE9F05F8346884608F1FC
:104D70000104002798F80000222805D08B48C0F8CD
:104D800000800020BDE8F09F04E014F8011B5C29BE
:104D900000D1641C2078222804D0207810B1781C1F
:104DA000071EF2D1781C7549096888478146B9F118
:104DB000000F01D10020E5E708F101044D469EE017
:104DC00020785C2804D014F8010B05F8010B96E05C
:104DD000641C2078722818D006DC622809D0662866
:104DE0000BD06E287ED10CE0742812D07528F9D132
:104DF00013E0082005F8010B7FE00C2005F8010BFB
:104E00007BE00A2005F8010B77E00D2005F8010B87
:104E100073E0092005F8010B6FE0601CFFF719FF34
:104E20000646241DB6F55C4F02D3B6F5604F00D39D
:104E300006B962E0B6F5584F1CD3B6F55C4F19D2EF
:104E400060785C2802D1A078752800D055E0E01C7D
:104E5000FFF7FFFE8246A41DBAF55C4F02D3BAF5F8
:104E6000604F00D349E0C6F30901504661F39F202B
:104E700000F580360427802E01D2012708E0B6F520
:104E8000006F01D2022703E0B6F5803F00D203276E
:104E90003D44012F20D0022F15D0032F0AD0042F1C
:104EA00024D106F0BF0040F08001681E0546017065
:104EB000B60900BF06F0BF0040F08001681E05463D
:104EC0000170B60900BF06F0BF0040F08001681E07
:104ED00005460170B60900BF3548C05D3043C1B218
:104EE000681E00E005E00546017000BF00BF3D44BC
:104EF00003E0207805F8010B00BF00BF641C207898
:104F0000222803D0207800287FF45AAF0020287090
:104F10002078222800D1641CCBF810900420CBF814
:104F20000C0020462EE72DE9F05F804689460027D9
:104F3000BB46454611E02878002802DD2878202865
:104F400005DB2878222802D028785C2801D10120AE
:104F500000E0002040EA0B0B6D1C28780028EAD105
:104F6000BBF1000F3ED1A5EB0807B9F1000F21D02E
:104F7000F91C4846FFF763FD064620E0100A0020B2
:104F8000256400000000B03C44F3C2E4E4E9634C53
:104F9000252E3066000000008DEDB5A0F7C6B03EAE
:104FA00065CDCD4125650000256600000C0A002076
:104FB0006A840008F81CFD4909688847064616B946
:104FC0000020BDE8F09F3446222004F8010B414642
:104FD000204601F072F92220E0550021781C21546E
:104FE0003046EEE7B8F1000F16D1B9F1000F05D049
:104FF00003214846FFF723FD064604E00320EB4962
:105000000968884706460EB90020DAE7E8A130466D
:1050100001F053F93046D4E745460BE05146E5A090
:1050200001F018F908B17F1C03E0BAF1200F00DA93
:105030007F1D6D1C95F800A0BAF1000F02D0781CFE
:10504000071EEBD1B9F1000F05D0F91C4846FFF758
:10505000F6FC064604E0F81CD44909688847064671
:105060000EB90020ADE734464546222004F8010B76
:1050700047E028781F280ADD2878222807D02878DA
:105080005C2804D015F8010B04F8010B39E05C2012
:1050900004F8010B15F8011B8A460C2919D006DC0F
:1050A000082912D0092920D00A2922D115E00D297A
:1050B00017D0222905D05C291BD15C2004F8010BF4
:1050C0001EE0222004F8010B1AE0622004F8010B14
:1050D00016E0662004F8010B12E06E2004F8010BC4
:1050E0000EE0722004F8010B0AE0742004F8010BB2
:1050F00006E05246B1A1204601F07AFE641D00BFD1
:1051000000BF28780028B4D1222004F8010B002029
:1051100004F8010B304654E770B504460D462946A5
:105120002069FFF700FF70BD00E0401C20B101784E
:1051300011B101782029F8DD70472DE9F0470646C6
:105140000C4620787B2804D09E4804600020BDE8EF
:10515000F0870620F060601CFFF7E6FF0446207829
:105160007D2801D1601CF2E7FFF74DFB0546B060DA
:10517000B06808B90020EAE72046FFF7D5FF80466F
:1051800041462846FFF7EFFD0746FFF7CDFF0446EF
:105190000CB90020DBE7286928620020286120780C
:1051A0003A2803D0874804600020D0E7601CFFF74E
:1051B000BBFF80464146284600F099F80746FFF7B6
:1051C000B3FF04460CB90020C1E731E0FFF71BFB39
:1051D000071E00D1BBE72F607D603D46601CFFF7D6
:1051E000A3FF814649462846FFF7BDFD8046FFF7ED
:1051F0009BFF04460CB90020A9E72869286200201B
:10520000286120783A2803D06E48046000209EE789
:10521000601CFFF789FF81464946284600F067F881
:105220008046FFF781FF04460CB900208FE700BFDE
:1052300020782C28CAD020787D2801D1601C86E7F0
:1052400060480460002082E72DE9F04705460C46DF
:1052500020785B2804D05B4804600020BDE8F0871C
:105260000520E860601CFFF75FFF044620785D289A
:1052700001D1601CF2E7FFF7C6FA0646A860A868ED
:1052800008B90020EAE72046FFF74EFF8046414676
:10529000304600F02CF80746FFF746FF04460CB9ED
:1052A0000020DBE717E0FFF7AEFA071E00D1D5E7D5
:1052B00037607E603E46601CFFF736FF81464946F8
:1052C000304600F014F88046FFF72EFF04460CB974
:1052D0000020C3E700BF20782C28E4D020785D2888
:1052E00001D1601CBAE7374804600020B6E770B50A
:1052F00005460C460CB9002070BD042232A12046A0
:1053000000F0E4FF18B90220E860201DF4E7052250
:105310002FA1204600F0DAFF18B90020E860601DD8
:10532000EAE704222CA1204600F0D0FF20B901209A
:10533000E8606861201DDFE72078222804D121463B
:105340002846FFF710FDD7E720782D2805D02078D4
:10535000302807DB2078392804DC21462846FFF76F
:1053600088FAC9E720785B2804D121462846FFF750
:105370006BFFC1E720787B2804D121462846FFF740
:10538000DCFEB9E70F4804600020B5E72DE9F047DF
:1053900080460D4616460024FFF735FA07460020E2
:1053A00008490860E7B9BDE8F0870000100A00204E
:1053B00022220000225C080C0A0D090075253034F9
:1053C000780000000C0A00206E756C6C0000000074
:1053D00066616C7365000000747275650000000002
:1053E0004046FFF7A1FE814649463846FFF77FFF5A
:1053F00004462CB93846FFF713FA0020BDE8F087C1
:1054000066B12046FFF790FE0446207830B138465A
:10541000FFF706FAFE4804600020EFE705B12C60B4
:105420003846EBE710B50446002211462046FFF748
:10543000ADFF10BD2DE9FF4F89B0884616461F46C7
:1054400000200890079006904FF0070A0025099861
:10545000D0F80890002002900190009004E002989B
:10546000401C0290D9F80090B9F1000FF7D10298D2
:10547000002835D157B116B108F1040000E003202F
:1054800001463846FFF7DBFA069009E016B108F14D
:10549000040100E003210846DE49096888470690B8
:1054A000069818B900200DB0BDE8F08F069C7B204F
:1054B00004F8010B66B10A2004F8010B002503E093
:1054C000092004F8010B6D1CA8F10100A842F7DCCB
:1054D0007D2004F8010B002004F8010B0698E2E798
:1054E000002F77D0BD680EB1022000E00120824677
:1054F0000AF101013846FFF7A2FA04460CB9002070
:10550000D1E77B2004F8010B16B10A2004F8010B47
:1055100000202070B8685044B8600998D0F808900E
:1055200008F1010868E0B6B141463846FFF787FA4E
:1055300004460CB90020B6E70020039005E00920DE
:1055400004F8010B0398401C039003984045F6DBD8
:10555000B8684044B8603946D9F82000FFF7E3FC4A
:105560003846FFF7A0FAB8600EB1022000E0012033
:10557000824651463846FFF762FA04460CB90020CD
:1055800091E73A2004F8010B16B1092004F8010B49
:10559000B8685044B8603B4632464146484600F041
:1055A00078FA3846FFF77FFAB8600EB1012000E0C4
:1055B0000020D9F8001009B1012100E0002100EB22
:1055C000010A0AF101013846FFF739FA044614B915
:1055D000002068E734E0D9F8000010B12C2004F86E
:1055E000010B16B10A2004F8010B00202070B868E6
:1055F0005044B860D9F80090B9F1000F93D116B1BA
:1056000008F1010000E0022001463846FFF717FAD2
:1056100004460CB9002046E74EB1002503E00920FE
:1056200004F8010B6D1CA8F10100A842F7DC7D20F5
:1056300004F8010B0020207038682844069005E12A
:10564000029988007349096888470890089808B942
:10565000002028E7029988006E490968884707906A
:10566000079828B96C4908980968884700201AE704
:1056700002988100089800F0D0FD029881000798F8
:1056800000F0CBFD0998D0F8089008F1010806B1A8
:10569000C2442EE00021D9F82000FFF744FC04901A
:1056A000079941F82500002332464146484600F05C
:1056B000F0F929466D1C0590089A42F821000498DB
:1056C00098B1059888B1059800F0CEFD83460498FE
:1056D00000F0CAFD0BEB0001891C16B108F10200B5
:1056E00000E000200844824401E001200190D9F844
:1056F0000090B9F1000FCDD1019820B9504645492D
:10570000096888470690069808B901200190019819
:1057100018B3002514E0079850F8250028B1079920
:1057200051F825003C4909688847089850F8250039
:1057300028B1089951F825003749096888476D1C38
:1057400002988542E7DB344907980968884732495F
:105750000898096888470020A5E67B210698017013
:105760000698441C16B10A2004F8010B0020207092
:10577000002548E05EB10020039005E0092004F810
:10578000010B0398401C039003984045F6DB0799F2
:1057900051F8250000F068FD0090079850F825109A
:1057A0002046009A00F020FD009804443A2004F8B6
:1057B000010B16B1092004F8010B089850F82510C8
:1057C000204600F07AFD089951F8250000F04CFDC4
:1057D00004440298401EA84202D02C2004F8010B79
:1057E00016B10A2004F8010B00202070079951F827
:1057F0002500094909688847089951F82500064994
:10580000096888476D1C02988542B3DB024905E0B0
:105810000C0A0020100A0020140A002007980968CA
:105820008847F7490898096888474EB1002503E082
:10583000092004F8010B6D1CA8F10100A842F7DC57
:105840007D2004F8010B002004F8010B06982AE6DD
:105850002DE9FF4F85B092461E464FF0000B052004
:1058600003900598D0F80880D946002500200290C2
:10587000019003E009F10109D8F80080B8F1000FA8
:10588000F8D1B9F1000F16D12EB103213046FFF740
:10589000D6F8834604E00320DA490968884783463E
:1058A000BBF1000F03D0D8A1584600F006FD5846C2
:1058B00009B0BDE8F08F002E57D0B5680121304601
:1058C000FFF7BDF804460CB90020F1E75B2020701B
:1058D000B068401CB0600598D0F808802EE03346D0
:1058E00052460699491C404600F0D3F83046FFF76F
:1058F000DAF8B060D8F80000F0B1BAF1000F01D0CA
:10590000022000E0012003900399491C3046FFF774
:1059100096F804460CB90020CAE72C2004F8010BC5
:10592000BAF1000F02D0202004F8010B00202070F3
:10593000B16803980844B060D8F80080B8F1000F4F
:1059400002D002980028CAD002213046FFF777F82B
:1059500004460CB90020ABE75D2004F8010B0020E1
:105960002070306800EB050B91E04FEA8900A549F3
:105970000968884707460FB9002099E74FEA89016F
:10598000384600F04AFC0598D0F8088021E0002352
:1059900052460699491C404600F07BF8049029467F
:1059A0006D1C049847F82100049870B1049800F029
:1059B0005BFC801CBAF1000F01D0012100E0002146
:1059C000014403980844039001E001200290D8F8B4
:1059D0000080B8F1000F02D002980028D7D00298BA
:1059E00020B988490398096888478346BBF1000FAE
:1059F00001D101200290029890B1002508E057F8EB
:105A0000250020B157F825007D49096888476D1C9D
:105A10004D45F4DB38467A4909688847002047E756
:105A20005B208BF800000BF10104002020700025A2
:105A300021E057F8250000F017FC019057F82510D9
:105A40002046019A00F0D0FB01980444A9F101001E
:105A5000A8420AD02C2004F8010BBAF1000F02D0A2
:105A6000202004F8010B0020207057F8250064491D
:105A7000096888476D1C4D45DBDB3846604909687D
:105A800088475D2004F8010B002004F8010B5846FC
:105A90000EE72DE9F04104460F4690461D460026CC
:105AA00014B90020BDE8F081002D49D0207B0728E3
:105AB00045D2DFE800F0101C04282E343C000521FC
:105AC0002846FEF7BCFF064626B1AFF20471304609
:105AD00000F0F3FB33E006212846FEF7B0FF064650
